:020000040800F2
:1000000000000220C91400089504000897040008A5
:10001000990400089B0400089D04000800000000EB
:100020000000000000000000000000009F04000825
:10003000A104000800000000A3040008A5040008B3
:1000400019150008191500081915000819150008D8
:1000500019150008191500081915000819150008C8
:1000600019150008191500081915000819150008B8
:1000700019150008191500081915000819150008A8
:1000800019150008191500081915000800000000CE
:10009000000000000000000000000000191500082A
:1000A0001915000819150008191500081915000878
:1000B0001915000819150008191500081915000868
:1000C0001915000819150008191500081915000858
:1000D000191500081915000819150008000000007E
:1000E000191500081915000819150008000000006E
:1000F00000000000000000000000000019150008CA
:10010000000000001915000819150008191500084D
:1001100000000000000000000000000000000000DF
:1001200019150008191500081915000819150008F7
:100130001915000800000000000000000000000089
:100140000000000000000000000000001915000879
:1001500019150008191500081915000819150008C7
:100160001915000819150008000000000000000023
:10017000000000000000000000000000000000007F
:100180000000000019150008000000000000000039
:080190001915000819150008FB
:1001980053B94AB9002908BF00281CBF4FF0FF31E6
:1001A8004FF0FF3000F00CB8ADF1080C6DE904CE4B
:1001B80001F0DCF9DDF804E0DDE9022304B0704762
:1001C800704700BF0348044B834202D0034B03B17E
:1001D800184770470C0000200C00002000000000A9
:1001E8000548064B1B1AD90F01EBA301491002D091
:1001F800034B03B1184770470C0000200C00002087
:100208000000000010B5064C237843B9FFF7DAFF69
:10021800044B13B10448AFF300800123237010BDD1
:100228000C000020000000003018000808B5054B3D
:100238001BB105490548AFF30080BDE80840FFF74A
:10024800CFBF00BF000000001000002030180008D9
:10025800F0B58BB00024059406940794089409948B
:100268000194254B1A6B42F004021A631A6B02F0D0
:1002780004020192019A02941A6B42F080021A63F6
:100288001A6B02F080020292029A03941A6B42F0EF
:1002980001021A631A6B02F001020392039A049492
:1002A8001A6B42F002021A631B6B03F002030493F9
:1002B800049B124F22464FF40051384601F020F8B3
:1002C8000F4D22461821284601F01AF84FF4005322
:1002D8000593012606960794089405A9384600F068
:1002E8002BFF1823059306960794089405A928461A
:1002F80000F022FF0BB0F0BD0038024000080240B9
:100308000000024072B6FEE700B58FB000230A93E2
:100318000B930C930D930893099301930293039302
:1003280004930593069307932448254A0260436083
:1003380083604FF46152C2600361836100F03EFA4A
:1003480000282ED14FF480530A930AA91B4800F0C5
:1003580036FB40BB194800F05DFA30BB0023089318
:10036800099308A9154800F0A9FB00BB6023019375
:100378007623029300220392059201A90F4800F008
:10038800A3FAB0B90023029304220DEB02010B4833
:1003980000F09AFA78B9094800F0CAF80FB05DF889
:1003A80004FBFFF7AFFFFFF7ADFFFFF7ABFFFFF76A
:1003B800A9FFFFF7A7FFFFF7A5FF00BF2800002050
:1003C8000008004000B595B03022002108A801F0CF
:1003D800C5F80023039304930593069307930193A9
:1003E800184A116C41F080511164126C02F080526D
:1003F8000192019A0293144A116841F44041116034
:10040800126802F440420292029A022208920122E1
:100418000B9210220C920E9308A800F08DFB68B97D
:100428000F2303930021049105910691079103A8D6
:1004380000F0D2FD20B915B05DF804FBFFF762FFAC
:10044800FFF760FF003802400070004010B500F070
:10045800EDFFFFF7B7FFFFF7FBFEFFF755FF0FE0D4
:10046800084B1A68D36A04FB03F30749A1FB03137B
:100478005B095363052001F005F8013C002CEFDC13
:100488006424FBE7280000201F85EB51FEE7FEE708
:10049800FEE7FEE7FEE770477047704708B500F0D3
:1004A800DFFF08BD82B0002100910B4B5A6C42F46B
:1004B80080425A645A6C02F480420092009A019178
:1004C8001A6C42F080521A641B6C03F0805301933B
:1004D800019B02B0704700BF0038024082B0036839
:1004E800104A934204D0104A93420ED002B070478B
:1004F800002300930D4B1A6C42F002021A641B6C25
:1005080003F002030093009BF0E700230193074BDD
:100518001A6C42F004021A641B6C03F00403019382
:10052800019BE3E700040040000800400038024057
:1005380000B589B0002303930493059306930793AA
:1005480003681A4A934205D0194A934218D009B051
:100558005DF804FB00230193164B1A6B42F001026D
:100568001A631B6B03F001030193019BC0230393E0
:1005780002230493079303A90F4800F0DDFDE6E783
:10058800002302930B4B1A6B42F002021A631B6B97
:1005980003F002030293029BC023039302230493F4
:1005A800079303A9054800F0C7FDD0E70004004001
:1005B80000080040003802400000024000040240E9
:1005C80030B4026A036A23F0010303624568836951
:1005D80023F073030C681C4322F002028B68134358
:1005E8000B4A904206D0456084614A6842630362C0
:1005F80030BC704723F00803CA681A4322F004038A
:1006080025F440754A692A438D691543EBE700BF15
:100618000000014030B4036A026A22F48072026268
:100628004468C26922F073020D68154323F400730D
:100638008A6843EA02230D4A904206D04460C561A5
:100648004A68C263036230BC704723F40063CA6817
:1006580043EA022323F4806324F440544A6944EAB9
:1006680002148A6944EA0214E8E700BF0000014066
:1006780030B4036A026A22F4805202624468C26992
:1006880022F4E6420D6842EA052223F400538D68FD
:1006980043EA0533074DA84206D04460C2614A6860
:1006A8000264036230BC704724F480444D6944EA14
:1006B8008514F2E70000014010B4036A046A24F0CC
:1006C80001040462846924F0F00C4CEA021223F05D
:1006D8000A030B43826103625DF8044B704710B450
:1006E800036A046A24F010040462846924F4704CD8
:1006F8004CEA023223F0A00343EA01138261036249
:100708005DF8044B7047836823F070030B4343F094
:1007180007038360704770470368274A90420ED0EA
:10072800B0F1804F0BD0A2F57C42904207D002F581
:100738008062904203D002F58062904203D123F098
:1007480070034A6813431C4A90421AD0B0F1804F94
:1007580017D0A2F57C42904213D002F580629042F5
:100768000FD002F5806290420BD002F59A32904287
:1007780007D002F58062904203D002F58062904271
:1007880003D123F44073CA68134323F080034A69F2
:1007980013438A68C2620A688262074A904207D095
:1007A800026842F00402026001224261036070475D
:1007B8000A690263F4E700BF0000014040B310B5C6
:1007C800044690F83D30F3B1022384F83D302146C9
:1007D80051F8040BFFF7A0FF012384F8463084F892
:1007E8003E3084F83F3084F8403084F8413084F853
:1007F800423084F8433084F8443084F8453084F833
:100808003D30002010BD80F83C30FFF767FEDBE785
:100818000120704740B310B5044690F83D30F3B15D
:10082800022384F83D30214651F8040BFFF774FF8A
:10083800012384F8463084F83E3084F83F3084F849
:10084800403084F8413084F8423084F8433084F8EA
:10085800443084F8453084F83D30002010BD80F8DD
:100868003C30FFF758FFDBE70120704730B4036ADC
:10087800026A22F0100202624468826922F4E642A7
:100888000D6842EA052223F020038D6843EA051328
:100898000C4DA84206D0446082614A6882630362B4
:1008A80030BC704723F08003CD6843EA051323F07A
:1008B800400324F440644D6944EA85048D6944EAA0
:1008C8008504E8E70000014038B590F83C30012B7A
:1008D80066D004460D46012380F83C300C2A5AD8CD
:1008E800DFE802F0075959591B59595930595959D4
:1008F80044000068FFF764FE2268936943F0080328
:1009080093612268936923F00403936122689369D1
:1009180029690B43936100203EE00068FFF7A6FFBA
:100928002268936943F4006393612268936923F40E
:100938008063936122689369296943EA012393617B
:10094800002029E00068FFF765FE2268D36943F0BC
:100958000803D3612268D36923F00403D3612268B2
:10096800D36929690B43D361002015E00068FFF7BC
:100978007FFE2268D36943F40063D3612268D36998
:1009880023F48063D3612268D369296943EA012388
:10099800D361002000E00120002384F83C3038BDFA
:1009A8000220FCE710B4846824F47F4C42EA032256
:1009B8000A4342EA0C0282605DF8044B704790F8E3
:1009C8003C30012B78D010B50446012380F83C3028
:1009D800022380F83D300268936823F47F4323F0B4
:1009E800770393600B68602B4CD029D8402B54D0E8
:1009F8000CD9502B22D1CA6849680068FFF75CFE01
:100A080050212068FFF77FFE002005E0202B0DD045
:100A180009D9302B0AD00120012384F83D30002366
:100A280084F83C3010BD0BB1102B05D11946206855
:100A3800FFF769FE0020EFE70120EDE70120EBE773
:100A4800B3F5805F34D0B3F5005F0CD1CB684A684A
:100A580089680068FFF7A6FF2268936843F480431B
:100A680093600020D8E7702B24D1CB684A68896846
:100A78000068FFF797FF2268936843F07703936055
:100A88000020C9E7CA6849680068FFF728FE6021A6
:100A98002068FFF738FE0020BEE7CA68496800688A
:100AA800FFF70AFE40212068FFF72DFE0020B3E77C
:100AB8000020B1E70120AFE70220704790F83C2002
:100AC800012A35D010B40346012280F83C200222C6
:100AD80080F83D2002685068946820F0700C08681F
:100AE80040EA0C0050601A681248824212D0B2F1F3
:100AF800804F0FD0A0F57C4082420BD000F580607B
:100B0800824207D000F58060824203D000F59A3017
:100B1800824204D124F08004496821439160012273
:100B280083F83D20002083F83C005DF8044B7047B3
:100B38000220704700000140002800F0E08170B5F5
:100B480082B00446036813F0010F3BD09F4B9B68AB
:100B580003F00C03042B2CD09C4B9B6803F00C0374
:100B6800082B21D06368B3F5803F4FD0B3F5A02F91
:100B780052D0964B1A6822F480321A601A6822F40E
:100B880080221A606368002B50D000F075FC05467F
:100B98008E4B1B6813F4003F14D100F06DFC401B12
:100BA8006428F5D90320B1E1884B5B6813F4800F02
:100BB800D8D0864B1B6813F4003F03D06368002B22
:100BC80000F09F81236813F0020F54D07F4B9B687D
:100BD80013F00C0F3ED07D4B9B6803F00C03082BE1
:100BE80033D0E368002B68D0794B01221A6000F0FB
:100BF80043FC0546754B1B6813F0020F54D100F0F7
:100C08003BFC401B0228F5D903207FE16F4A13689B
:100C180043F480331360B5E76C4B1A6842F48022C2
:100C28001A601A6842F480321A60ABE700F024FCBC
:100C38000546664B1B6813F4003FC3D000F01CFC4C
:100C4800401B6428F5D9032060E1604B5B6813F40E
:100C5800800FC6D15D4B1B6813F0020F03D0E36809
:100C6800012B40F05081594A136823F0F803216999
:100C780043EAC1031360236813F0080F42D0636985
:100C88006BB3534B0122C3F8802E00F0F5FB0546E9
:100C98004E4B5B6F13F0020F34D100F0EDFB401B9D
:100CA8000228F5D9032031E1484A136823F0F803F4
:100CB800216943EAC1031360DDE7454B00221A604E
:100CC80000F0DAFB0546414B1B6813F0020FD2D047
:100CD80000F0D2FB401B0228F5D9032016E13C4B5B
:100CE8000022C3F8802E00F0C7FB0546374B5B6F28
:100CF80013F0020F06D000F0BFFB401B0228F5D905
:100D0800032003E1236813F0040F77D02F4B1B6CEB
:100D180013F0805F33D1002301932C4B1A6C42F0FF
:100D280080521A641B6C03F080530193019B0125C8
:100D3800284B1B6813F4807F23D0A368012B34D081
:100D4800052B38D0214B1A6F22F001021A671A6F4F
:100D580022F004021A67A368002B3DD000F08CFB38
:100D680006461A4B1B6F13F0020F46D100F084FBA6
:100D7800801B41F288339842F3D90320C6E000254E
:100D8800D6E7144A136843F48073136000F074FBC9
:100D98000646104B1B6813F4807FCED100F06CFB25
:100DA800801B0228F5D90320B0E0084A136F43F0EE
:100DB80001031367CFE7054B1A6F42F004021A6765
:100DC8001A6F42F001021A67C5E700BF00380240F7
:100DD800000047420070004000F04EFB0646524BB0
:100DE8001B6F13F0020F08D000F046FB801B41F286
:100DF80088339842F3D9032088E0EDB9A369002B22
:100E080000F08380484A926802F00C02082A51D008
:100E1800022B17D0454B00221A6600F02DFB044622
:100E2800414B1B6813F0007F42D000F025FB001BEC
:100E38000228F5D9032069E03B4A136C23F080535C
:100E48001364DBE7394B00221A6600F015FB0546F0
:100E5800354B1B6813F0007F06D000F00DFB401BDC
:100E68000228F5D9032051E0E369226A1343626A34
:100E780043EA8213A26A5208013A43EA0243E26A49
:100E880043EA0263284A5360284B01221A6600F09D
:100E9800F3FA0446244B1B6813F0007F06D100F0D8
:100EA800EBFA001B0228F5D903202FE000202DE0E3
:100EB80000202BE0012B2BD01B4B5B6803F4800137
:100EC800E269914226D103F03F02216A8A4223D186
:100ED800616A47F6C0721A40B2EB811F1ED103F453
:100EE8004031A26A5208013AB1EB024F18D103F01F
:100EF8007063E26AB3EB026F14D1002006E00120B0
:100F08007047012002E0012000E0002002B070BD1F
:100F18000120FBE70120F9E70120F7E70120F5E7C9
:100F28000120F3E70120F1E70038024000004742C2
:100F380008B5264B9B6803F00C03042B41D0082B03
:100F480041D1224B5A6802F03F025B6813F4800FCC
:100F580012D01E4B5968C1F388111D480023A1FB0C
:100F68000001FFF715F9194B5B68C3F3014301331F
:100F78005B00B0FBF3F027E0144B5868C0F388100F
:100F88004FEA401CBCEB000C6EEB0E0E4FEA8E13C2
:100F980043EA9C634FEA8C11B1EB0C0163EB0E033F
:100FA800DB0043EA5173C90011EB000C43F1000365
:100FB800990200234FEA8C2041EA9C51FFF7E8F898
:100FC800D1E7034800E0034808BD00BF00380240ED
:100FD80040787D010024F400002800F09B8070B563
:100FE8000D4604464F4B1B6803F007038B4208D29B
:100FF800CBB24C4A1370136803F007038B4240F0DE
:101008008B80236813F0020F17D013F0040F04D05D
:10101800454A936843F4E0539360236813F0080F3C
:1010280004D0414A936843F4604393603E4A93680E
:1010380023F0F003A1680B439360236813F0010FBA
:1010480032D06368012B21D09A1E012A25D9364A4D
:10105800126812F0020F61D033498A6822F0030245
:1010680013438B6000F008FA06462F4B9B6803F089
:101078000C036268B3EB820F16D000F0FDF9801BF9
:1010880041F288339842F0D9032042E0264A126898
:1010980012F4003FE0D101203BE0234A126812F02D
:1010A800007FD9D1012034E01E4B1B6803F00703F1
:1010B800AB4207D9EAB21B4B1A701B6803F007034F
:1010C800AB422DD1236813F0040F06D0164A93685B
:1010D80023F4E053E1680B439360236813F0080F8F
:1010E80007D0114A936823F46043216943EAC10396
:1010F8009360FFF71DFF0C4B9B68C3F303130B4A68
:10110800D35CD8400A4B18600A4B186800F068F99D
:10111800002070BD012070470120FAE70120F8E7A0
:101128000120F6E7003C0240003802404818000859
:10113800080000200400002000230F2B00F2D780B5
:1011480070B582B065E085684FEA430E032404FA5F
:101158000EF425EA0405CC6804FA0EF42C438460E6
:10116800446824EA02044A68C2F300129A402243FF
:1011780042605CE0DC08083450F8242003F00705DE
:10118800AD004FF00F0E0EFA05FE22EA0E0E0A69A8
:10119800AA4042EA0E0240F824205CE0042200E063
:1011A800002202FA0EF22A430234514D45F8242057
:1011B800504A94686FEA0C0224EA0C054E6816F44B
:1011C800801F01D04CEA04054A4CA560E46802EA95
:1011D80004054E6816F4001F01D04CEA0405454C7E
:1011E800E560646802EA04054E6816F4003F01D021
:1011F8004CEA04053F4C6560246822404D6815F4AC
:10120800803F01D04CEA04023A4C226001330F2B94
:101218006BD801229A400C6804EA020C32EA0404F2
:10122800F4D14C6804F00304013C012C8BD94A68C2
:1012380002F00302032A09D0C4685D000322AA4011
:1012480024EA02048A68AA402243C2604A6802F07B
:101258000302022A8ED004684FEA430E032202FAE0
:101268000EF224EA02044A6802F0030202FA0EF2BD
:10127800224302604A6812F4403FC7D0002201921C
:101288001D4A546C44F480445464526C02F4804205
:101298000192019A9C08A51C154A52F8255003F0A2
:1012A800030E4FEA8E0E0F2202FA0EF225EA02050D
:1012B800124A90423FF474AF02F5806290420ED019
:1012C80002F5806290420CD002F5806290420AD00A
:1012D80002F5806290423FF461AF072261E7012284
:1012E8005FE702225DE703225BE702B070BD70474B
:1012F80000380140003C0140003802400000024034
:101308000AB181617047090481617047002808DBD0
:101318000901C9B200F1604000F5614080F800138E
:10132800704700F00F000901C9B2014B195470470A
:1013380014ED00E000B500F00700C0F1070CBCF1A7
:10134800040F28BF4FF0040C031D062B0FD9C31E32
:101358004FF0FF3E0EFA0CF021EA000199400EFA18
:1013680003FE22EA0E0241EA02005DF804FB0023B4
:10137800EEE70000074AD36823F4E0631B041B0C64
:10138800000200F4E060034343F0BF6343F400331A
:10139800D360704700ED00E010B50446054BD868EF
:1013A800C0F30220FFF7C6FF01462046FFF7AEFF55
:1013B80010BD00BF00ED00E00138B0F1807F0BD216
:1013C8004FF0E0235861054AF02182F823100020ED
:1013D800986107221A6170470120704700ED00E00C
:1013E80010B504460E4B1A784FF47A73B3FBF2F338
:1013F8000C4A1068B0FBF3F0FFF7DEFF68B90F2C5A
:1014080001D901200AE0002221464FF0FF30FFF702
:10141800C3FF054B1C60002000E0012010BD00BF89
:1014280000000020080000200400002008B50B4B35
:101438001A6842F400721A601A6842F480621A60EC
:101448001A6842F480721A600320FFF793FF0F2096
:10145800FFF7C6FFFFF726F8002008BD003C024052
:10146800034A1168034B1B780B441360704700BF95
:101478007000002000000020014B1868704700BF72
:101488007000002038B50446FFF7F6FF0546B4F1B2
:10149800FF3F02D0044B1B781C44FFF7EDFF401BB5
:1014A800A042FAD338BD00BF00000020034AD2F89A
:1014B800883043F47003C2F88830704700ED00E0CC
:1014C800DFF834D0FFF7F2FF0C480D490D4A00232E
:1014D80002E0D458C4500433C4188C42F9D30A4AE1
:1014E8000A4C002301E013600432A242FBD300F04F
:1014F80011F8FEF7ABFF7047000002200000002043
:101508000C000020681800080C000020740000205F
:10151800FEE7000070B50D4D0D4C641BA4100026AD
:10152800A64209D10B4D0C4C00F07EF9641BA410A7
:101538000026A64205D170BD55F8043B98470136F0
:10154800EEE755F8043B98470136F2E760180008C3
:101558006018000860180008641800080244034670
:10156800934200D1704703F8011BF9E72DE9F047D2
:10157800089D0C46002B4ED194468C458646B2FAFF
:1015880082F262D94AB1C2F12003914020FA03F3F2
:101598000CFA02FC194300FA02FE4FEA1C471FFA34
:1015A8008CF6B1FBF7F44FEA1E4307FB141143EA2C
:1015B800014304FB06F199420AD91CEB030304F129
:1015C800FF3080F01381994240F21081023C63445D
:1015D800591A1FFA8EF3B1FBF7F007FB101143EA13
:1015E800014300FB06F69E420AD91CEB030300F1F7
:1015F800FF3180F0FD809E4240F2FA806344023859
:101608009B1B40EA044000211DB1D3400022C5E9DC
:101618000032BDE8F0878B4205D90DB1C5E900015C
:1016280000210846F5E7B3FA83F1002946D1A34221
:1016380002D39042C0F0F180861A64EB03030120C4
:10164800002DE6D0C5E90063E3E7002A40F0918069
:10165800A1EB0C044FEA1C481FFA8CF70121B4FBDC
:10166800F8F64FEA1E4308FB164443EA044307FB17
:1016780006F0984208D91CEB030306F1FF3402D2A6
:10168800984200F2CE8026461C1A1FFA8EF3B4FB4D
:10169800F8F008FB104443EA044300FB07F79F42B5
:1016A80008D91CEB030300F1FF3402D29F4200F279
:1016B800B1802046DB1B40EA0640A5E7C1F12006C1
:1016C8008B4022FA06F71F4320FA06FC04FA01F3BE
:1016D80043EA0C03F44000FA01F8380C4FEA1349C6
:1016E800B4FBF0FE1FFA87FC00FB1E4449EA0444E1
:1016F8000EFB0CF9A14502FA01F20AD93C190EF1C8
:10170800FF3A80F08580A14540F28280AEF1020E5A
:101718003C44A4EB09041FFA83F9B4FBF0F300FB83
:10172800134449EA044403FB0CFCA44507D93C19BB
:1017380003F1FF3068D2A44566D9023B3C4443EA32
:101748000E40A0FB0293A4EB0C049C42CE469C46A0
:1017580052D34FD055B1B8EB0E0364EB0C0404FA26
:1017680006F6CB40CC401E43C5E900640021BDE825
:10177800F087C2F1200320FA03F10CFA02FC24FAE4
:1017880003F394400C434FEA1C4800FA02FE1FFA88
:101798008CF7B3FBF8F008FB1031230C43EA014344
:1017A80000FB07F1994208D91CEB030300F1FF364F
:1017B8002CD299422AD9023863445B1AA4B2B3FBEB
:1017C800F8F108FB113344EA034401FB07F3A34291
:1017D80008D91CEB040401F1FF3613D2A34211D936
:1017E80002396444E41A41EA004138E70446EFE666
:1017F800084605E7C845ADD2B9EB020E63EB070C06
:101808000138A7E73146EDE7034698E73046D4E7C5
:10181800D6467EE7634402384CE706462346084628
:101828000EE7023E63442FE7F8B500BFF8BC08BCDA
:101838009E467047F8B500BFF8BC08BC9E46704786
:101848000000000000000000010203040607080968
:081858001CFDFF7F01000000F0
:041860003502000845
:041864000D02000869
:0C18680001000000100000000024F4004B
:04000005080014C912
:00000001FF
