:020000040800F2
:1000000000000220351C000895060008970600082D
:10001000990600089B0600089D06000800000000E5
:100020000000000000000000000000009F06000823
:10003000A106000800000000A3060008A5060008AD
:10004000851C0008851C0008851C0008851C00080C
:10005000851C0008851C0008851C0008851C0008FC
:10006000851C0008851C0008851C0008851C0008EC
:10007000851C0008851C0008851C0008851C0008DC
:10008000851C0008851C0008851C00080000000075
:10009000000000000000000000000000851C0008B7
:1000A000851C0008851C0008851C0008851C0008AC
:1000B000851C0008AD060008851C0008851C00088A
:1000C000851C0008851C0008851C0008851C00088C
:1000D000851C0008851C0008851C00080000000025
:1000E000851C0008851C0008851C00080000000015
:1000F000000000000000000000000000851C000857
:1001000000000000851C0008851C0008851C0008F4
:1001100000000000000000000000000000000000DF
:10012000851C0008851C0008851C0008851C00082B
:10013000851C000800000000000000000000000016
:10014000000000000000000000000000851C000806
:10015000851C0008851C0008851C0008851C0008FB
:10016000851C0008851C000800000000000000003D
:10017000000000000000000000000000000000007F
:1001800000000000851C00080000000000000000C6
:08019000851C0008851C000815
:1001980053B94AB9002908BF00281CBF4FF0FF31E6
:1001A8004FF0FF3000F00CB8ADF1080C6DE904CE4B
:1001B80001F092FDDDF804E0DDE9022304B07047A8
:1001C800704700BF0348044B834202D0034B03B17E
:1001D800184770470C0000200C00002000000000A9
:1001E8000548064B1B1AD90F01EBA301491002D091
:1001F800034B03B1184770470C0000200C00002087
:100208000000000010B5064C237843B9FFF7DAFF69
:10021800044B13B10448AFF300800123237010BDD1
:100228000C00002000000000D81F000808B5054B8E
:100238001BB105490548AFF30080BDE80840FFF74A
:10024800CFBF00BF0000000010000020D81F00082A
:1002580070B58AB005AD00240594069407940894F7
:1002680009940194224B1A6B42F004021A631A6B28
:1002780002F004020192019A02941A6B42F0800281
:100288001A631A6B02F080020292029A03941A6BA4
:1002980042F001021A631A6B02F001020392039AF8
:1002A80004941A6B42F002021A631B6B03F00203F8
:1002B8000493049B0F4E22464FF40051304601F040
:1002C800C2FB4FF400530593012306930794089447
:1002D8002946304601F0CCFA4FF4204305930694A2
:1002E80007942946044801F0C3FA0AB070BD00BF5C
:1002F80000380240000802400004024008B50268C5
:10030800184B9A4200D008BD174B1B78012B09D017
:10031800164B1A68536B053B042B19D9536B053BD5
:100328005363F0E7114B1A68536B093340F2AD3150
:100338008B4203D8536B09335363E4E70A4B00221B
:100348001A7001224FF40051094801F07CFBDAE7EA
:10035800054B01221A7000224FF40051044801F0A5
:1003680072FBD0E7000400400000002028000020B5
:100378000008024072B6FEE700B58FB000230A936A
:100388000B930C930D930893099301930293039392
:1003980004930593069307932448254A0260436013
:1003A800836040F2AD32C2600361836100F056FCA5
:1003B80000282ED14FF480530A930AA91B4800F055
:1003C80016FE40BB194800F075FC30BB00230893AB
:1003D800099308A9154800F00BFF00BB602301939F
:1003E8007623029300220392059201A90F4800F098
:1003F800E7FCB0B90023029304220DEB02010B487D
:1004080000F0DEFC78B9094800F0BEF90FB05DF8DD
:1004180004FBFFF7AFFFFFF7ADFFFFF7ABFFFFF7F9
:10042800A9FFFFF7A7FFFFF7A5FF00BF28000020DF
:100438000008004000B58BB000230693079308938B
:10044800099304930593009301930293039322481D
:10045800224A026040F23F6242608360C722C26063
:100468000361836100F0FAFB50BB4FF4805306939D
:1004780006A9194800F0BBFD20BB174800F046FC50
:1004880010BB00230493059304A9134800F0B0FEA1
:10049800E0B9002200920123019302920392694677
:1004A8000D4800F031FD98B902230093019304220E
:1004B8006946094800F028FD60B90BB05DF804FBF7
:1004C800FFF758FFFFF756FFFFF754FFFFF752FFFC
:1004D800FFF750FFFFF74EFF7000002000040040B8
:1004E80010B594B008AC30220021204601F0C7FBBB
:1004F8000023039304930593069307930193184AE3
:10050800116C41F080511164126C02F0805201921A
:10051800019A0293134A116841F44041116012682C
:1005280002F440420292029A0222089201220B929D
:1005380010220C920E93204600F09AFE60B90F2309
:1005480003930021049105910691079103A801F0F6
:10055800DFF818B914B010BDFFF70CFFFFF70AFF5A
:10056800003802400070004008B501F015FBFFF7A5
:10057800B7FFFFF76DFEFFF7FFFEFFF75BFF1E4CAF
:100588000021204600F0C2FD0421204600F0BEFDF7
:100598001A4800F021FA02E09A6B76329A63012237
:1005A8004FF40041164800F059F868B1124B1B6827
:1005B8009A6BB2F56B7F07D89A6B763240F2AD3101
:1005C8008A42E9D99963EAE701224FF400510C48BD
:1005D80000F044F80028E2D0074B1B689A6B7B2A8E
:1005E800DDD99A6B763A042A02D805229A63D6E7AF
:1005F8009A6B763A9A63D2E72800002070000020B0
:10060800000402402DE9F84380460F469146002534
:100618002E462C4606E00135EDB20646012001F0D3
:10062800E7FA0134042C09D83946404601F004FAA7
:100638000028F0D00136F6B20025EFE7B9F1000F37
:1006480004D0022E06D80020BDE8F883022D03D876
:100658004846F9E7FF20F7E7FF20F5E770B50446BD
:100668000D461646FFF7CEFF00B970BD3EB12946CC
:10067800204601F0E1F90028F9D1FF20F5E72946E5
:10068800204601F0D9F90028F9D0F6E7FEE7FEE7A1
:10069800FEE7FEE7FEE770477047704708B501F0D0
:1006A80095FA08BD08B5024800F0D6F908BD00BFA4
:1006B8007000002082B0002100910B4B5A6C42F46C
:1006C80080425A645A6C02F480420092009A019166
:1006D8001A6C42F080521A641B6C03F08053019329
:1006E800019B02B0704700BF0038024010B588B0C7
:1006F80000230393049305930693079303681E4A04
:10070800934204D01D4A934229D008B010BD00245A
:1007180000941B4B1A6C42F002021A641A6C02F025
:1007280002020092009A01941A6B42F001021A63C5
:100738001B6B03F001030193019B402303930223E6
:100748000493079303A90F4801F092F82246214623
:100758001D2001F0D3F91D2001F0E0F9D5E70023B1
:100768000293074B1A6C42F004021A641B6C03F0E4
:1007780004030293029BC8E70004004000080040FD
:10078800003802400000024000B587B00023019302
:10079800029303930493059302680E4B9A4202D086
:1007A80007B05DF804FB002300930B4B1A6B42F073
:1007B80002021A631B6B03F002030093009BC02321
:1007C800019302230293059301A9044801F050F80C
:1007D800E6E700BF0008004000380240000402407D
:1007E80030B4026A036A23F001030362456883692F
:1007F80023F073030C681C4322F002028B68134336
:100808000B4A904206D0456084614A68426303629D
:1008180030BC704723F00803CA681A4322F0040367
:1008280025F440754A692A438D691543EBE700BFF3
:100838000000014030B4036A026A22F48072026246
:100848004468C26922F073020D68154323F40073EB
:100858008A6843EA02230D4A904206D04460C56183
:100868004A68C263036230BC704723F40063CA68F5
:1008780043EA022323F4806324F440544A6944EA97
:1008880002148A6944EA0214E8E700BF0000014044
:1008980030B4036A026A22F4805202624468C26970
:1008A80022F4E6420D6842EA052223F400538D68DB
:1008B80043EA0533074DA84206D04460C2614A683E
:1008C8000264036230BC704724F480444D6944EAF2
:1008D8008514F2E70000014010B4036A046A24F0AA
:1008E80001040462846924F0F00C4CEA021223F03B
:1008F8000A030B43826103625DF8044B704730B40E
:10090800056A046A24F010040462846924F4407CB3
:100918004CEA022C2CF4704C1B039BB243EA0C03E8
:1009280025F0A005090101F0A001294383610162B6
:1009380030BC704710B4036A046A24F010040462DF
:10094800846924F4704C4CEA023223F0A00343EA91
:100958000113826103625DF8044B704730B4056A85
:10096800046A24F480740462C46924F0030C4CEA19
:10097800020C2CF0F00C1B01DBB243EA0C0325F44B
:100988002065090201F420612943C361016230BC7A
:10099800704730B4056A046A24F480540462C46958
:1009A80024F4407C4CEA022C2CF4704C1B039BB2C0
:1009B80043EA0C0325F42045090301F420412943A7
:1009C800C361016230BC7047836823F070030B4336
:1009D80043F007038360704790F83D30012B2FD117
:1009E800022380F83D300268D36843F00103D360E6
:1009F8000368154A934218D0B3F1804F15D0A2F579
:100A08007C42934211D002F5806293420DD002F5E8
:100A18008062934209D002F59A32934205D01A684F
:100A280042F001021A60002070479A6802F007023B
:100A3800062A07D01A6842F001021A60002070479F
:100A48000120704700207047000001407047704740
:100A5800704770477047704770B504460368DE6892
:100A68001D6915F0020F10D016F0020F0DD06FF0AF
:100A780002021A610123037703689B6913F0030FCD
:100A88005ED0FFF7E6FF0023237715F0040F12D09E
:100A980016F0040F0FD023686FF004021A610223C6
:100AA800237723689B6913F4407F4FD02046FFF7D4
:100AB800D0FF0023237715F0080F12D016F0080F87
:100AC8000FD023686FF008021A6104232377236884
:100AD800DB6913F0030F40D02046FFF7BAFF00236D
:100AE800237715F0100F12D016F0100F0FD02368CF
:100AF8006FF010021A61082323772368DB6913F467
:100B0800407F31D02046FFF7A4FF0023237715F05C
:100B1800010F02D016F0010F2DD115F0800F02D071
:100B280016F0800F2FD115F0400F02D016F0400FAD
:100B380031D115F0200F02D016F0200F33D170BD3F
:100B4800FFF786FF2046FFF785FF9CE72046FFF763
:100B58007FFF2046FFF77EFFABE72046FFF778FFD1
:100B68002046FFF777FFBAE72046FFF771FF2046D8
:100B7800FFF770FFC9E723686FF001021A6120468A
:100B8800FFF7BCFBC9E723686FF080021A612046B3
:100B980000F06DFBC7E723686FF040021A6120463A
:100BA800FFF759FFC5E723686FF020021A61204656
:100BB80000F05CFBC3E700000368274A90420ED0B0
:100BC800B0F1804F0BD0A2F57C42904207D002F5DD
:100BD8008062904203D002F58062904203D123F0F4
:100BE80070034A6813431C4A90421AD0B0F1804FF0
:100BF80017D0A2F57C42904213D002F58062904251
:100C08000FD002F5806290420BD002F59A329042E2
:100C180007D002F58062904203D002F580629042CC
:100C280003D123F44073CA68134323F080034A694D
:100C380013438A68C2620A688262074A904207D0F0
:100C4800026842F0040202600122426103607047B8
:100C58000A690263F4E700BF0000014040B310B521
:100C6800044690F83D30F3B1022384F83D30214624
:100C780051F8040BFFF7A0FF012384F8463084F8ED
:100C88003E3084F83F3084F8403084F8413084F8AE
:100C9800423084F8433084F8443084F8453084F88E
:100CA8003D30002010BD80F83C30FFF71FFDDBE72A
:100CB8000120704740B310B5044690F83D30F3B1B9
:100CC800022384F83D30214651F8040BFFF774FFE6
:100CD800012384F8463084F83E3084F83F3084F8A5
:100CE800403084F8413084F8423084F8433084F846
:100CF800443084F8453084F83D30002010BD80F839
:100D08003C30FFF7A3FEDBE70120704740B310B586
:100D1800044690F83D30F3B1022384F83D30214673
:100D280051F8040BFFF748FF012384F8463084F894
:100D38003E3084F83F3084F8403084F8413084F8FD
:100D4800423084F8433084F8443084F8453084F8DD
:100D58003D30002010BD80F83C30FFF778FEDBE71F
:100D68000120704730B4036A026A22F0100202625E
:100D78004468826922F4E6420D6842EA052223F0BB
:100D880020038D6843EA05130C4DA84206D0446041
:100D980082614A688263036230BC704723F0800333
:100DA800CD6843EA051323F0400324F440644D69F9
:100DB80044EA85048D6944EA8504E8E700000140B7
:100DC80038B590F83C30012B66D004460D46012317
:100DD80080F83C300C2A5AD8DFE802F007595959F4
:100DE8001B5959593059595944000068FFF7F8FC04
:100DF8002268936943F0080393612268936923F09A
:100E0800040393612268936929690B439361002065
:100E18003EE00068FFF7A6FF2268936943F4006389
:100E280093612268936923F48063936122689369CC
:100E3800296943EA01239361002029E00068FFF74C
:100E4800F9FC2268D36943F00803D3612268D369A7
:100E580023F00403D3612268D36929690B43D36162
:100E6800002015E00068FFF713FD2268D36943F4FA
:100E78000063D3612268D36923F48063D361226855
:100E8800D369296943EA0123D361002000E00120E6
:100E9800002384F83C3038BD0220FCE770B4944647
:100EA800066A046A24F0010404628469144DA842A5
:100EB80014D0B0F1804F11D0124A90420ED002F5F2
:100EC800806290420AD002F58062904206D002F514
:100ED8009A32904202D044F0010203E024F0030267
:100EE80042EA0C0222F0F0021B01DBB2134326F0A7
:100EF8000A0201F00A0111438361016270BC704764
:100F0800000001400004004038B590F83C30012B47
:100F18005ED004460D46012380F83C300C2A52D896
:100F2800DFE802F007515151195151512C515151DB
:100F38003E00CB684A6809680068FFF7AFFF22687F
:100F4800936923F00C03936122689369A9680B43A2
:100F58009361002038E0CB684A6809680068FFF7A9
:100F6800CEFC2268936923F44063936122689369F5
:100F7800A96843EA01239361002025E0CB684A6809
:100F880009680068FFF7EAFC2268D36923F00C03BC
:100F9800D3612268D369A9680B43D361002013E0A9
:100FA800CB684A6809680068FFF7F3FC2268D369D0
:100FB80023F44063D3612268D369A96843EA012313
:100FC800D361002000E00120002384F83C3038BDC4
:100FD8000220FCE710B4846824F47F4C42EA032220
:100FE8000A4342EA0C0282605DF8044B704790F8AD
:100FF8003C30012B78D010B50446012380F83C30F2
:10100800022380F83D300268936823F47F4323F07D
:10101800770393600B68602B4CD023D8402B54D0B7
:1010280011D8202B03D00AD80BB1102B05D11946A3
:101038002068FFF7C9FC002028E0012026E0302BBB
:10104800F5D0012022E0502B0AD1CA68496800680F
:10105800FFF742FC50212068FFF7B6FC002015E09E
:10106800012013E0B3F5805F3AD0B3F5005F14D0E8
:10107800702B37D1CB684A6889680068FFF7AAFFE8
:101088002268936843F0770393600020012384F873
:101098003D30002384F83C3010BDCB684A6889682D
:1010A8000068FFF797FF2268936843F480439360D2
:1010B8000020EBE7CA6849680068FFF73BFC60213D
:1010C8002068FFF781FC0020E0E7CA6849680068EB
:1010D800FFF702FC40212068FFF776FC0020D5E7E7
:1010E8000020D3E70120D1E70220704701F01F015B
:1010F8004FF0010C0CFA01FC036A23EA0C030362AB
:10110800036A8A40134303627047000010B504461F
:10111800084689BB94F83E30013B18BF0123002BD9
:1011280060D100283ED1022384F83E3001220146D6
:101138002068FFF7DBFF23682C4A934242D02368DC
:101148002A4A934243D0B3F1804F40D0A2F57C4263
:1011580093423CD002F58062934238D002F5806217
:10116800934234D002F59A32934230D01A6842F052
:1011780001021A60002034E0042907D008290BD0A6
:1011880094F84130013B18BF0123C8E794F83F3079
:10119800013B18BF0123C2E794F84030013B18BF58
:1011A8000123BCE7042805D0082807D0022384F8C7
:1011B8004130BBE7022384F83F30B7E7022384F8C5
:1011C8004030B3E75A6C42F400425A64B7E79A6871
:1011D80002F00702062A07D01A6842F001021A60D4
:1011E800002010BD0120FCE70020FAE700000140C4
:1011F80090F83C20012A35D010B40346012280F82B
:101208003C20022280F83D2002685068946820F053
:10121800700C086840EA0C0050601A681248824254
:1012280012D0B2F1804F0FD0A0F57C4082420BD093
:1012380000F58060824207D000F58060824203D0CA
:1012480000F59A30824204D124F080044968214391
:101258009160012283F83D20002083F83C005DF86E
:10126800044B7047022070470000014070477047E8
:10127800002800F0E08170B582B00446036813F0DE
:10128800010F3BD09F4B9B6803F00C03042B2CD021
:101298009C4B9B6803F00C03082B21D06368B3F5C3
:1012A800803F4FD0B3F5A02F52D0964B1A6822F446
:1012B80080321A601A6822F480221A606368002B50
:1012C80050D000F08FFC05468E4B1B6813F4003F8E
:1012D80014D100F087FC401B6428F5D90320B1E144
:1012E800884B5B6813F4800FD8D0864B1B6813F4C7
:1012F800003F03D06368002B00F09F81236813F040
:10130800020F54D07F4B9B6813F00C0F3ED07D4BDF
:101318009B6803F00C03082B33D0E368002B68D0DC
:10132800794B01221A6000F05DFC0546754B1B687D
:1013380013F0020F54D100F055FC401B0228F5D9D8
:1013480003207FE16F4A136843F480331360B5E7E5
:101358006C4B1A6842F480221A601A6842F4803290
:101368001A60ABE700F03EFC0546664B1B6813F4B9
:10137800003FC3D000F036FC401B6428F5D9032099
:1013880060E1604B5B6813F4800FC6D15D4B1B684E
:1013980013F0020F03D0E368012B40F05081594A43
:1013A800136823F0F803216943EAC1031360236833
:1013B80013F0080F42D063696BB3534B0122C3F893
:1013C800802E00F00FFC05464E4B5B6F13F0020FAA
:1013D80034D100F007FC401B0228F5D9032031E185
:1013E800484A136823F0F803216943EAC1031360EC
:1013F800DDE7454B00221A6000F0F4FB0546414B3F
:101408001B6813F0020FD2D000F0ECFB401B02283F
:10141800F5D9032016E13C4B0022C3F8802E00F0DA
:10142800E1FB0546374B5B6F13F0020F06D000F067
:10143800D9FB401B0228F5D9032003E1236813F0E8
:10144800040F77D02F4B1B6C13F0805F33D1002330
:1014580001932C4B1A6C42F080521A641B6C03F0F7
:1014680080530193019B0125284B1B6813F4807F4F
:1014780023D0A368012B34D0052B38D0214B1A6F09
:1014880022F001021A671A6F22F004021A67A36891
:10149800002B3DD000F0A6FB06461A4B1B6F13F03D
:1014A800020F46D100F09EFB801B41F28833984220
:1014B800F3D90320C6E00025D6E7144A136843F49D
:1014C8008073136000F08EFB0646104B1B6813F404
:1014D800807FCED100F086FB801B0228F5D903203F
:1014E800B0E0084A136F43F001031367CFE7054BD9
:1014F8001A6F42F004021A671A6F42F001021A6763
:10150800C5E700BF003802400000474200700040B5
:1015180000F068FB0646524B1B6F13F0020F08D011
:1015280000F060FB801B41F288339842F3D9032016
:1015380088E0EDB9A369002B00F08380484A9268DF
:1015480002F00C02082A51D0022B17D0454B00227A
:101558001A6600F047FB0446414B1B6813F0007FF6
:1015680042D000F03FFB001B0228F5D9032069E0B8
:101578003B4A136C23F080531364DBE7394B00229A
:101588001A6600F02FFB0546354B1B6813F0007FE9
:1015980006D000F027FB401B0228F5D9032051E0B4
:1015A800E369226A1343626A43EA8213A26A520811
:1015B800013A43EA0243E26A43EA0263284A536073
:1015C800284B01221A6600F00DFB0446244B1B68C9
:1015D80013F0007F06D100F005FB001B0228F5D9A7
:1015E80003202FE000202DE000202BE0012B2BD042
:1015F8001B4B5B6803F48001E269914226D103F03A
:101608003F02216A8A4223D1616A47F6C0721A40B2
:10161800B2EB811F1ED103F44031A26A5208013A8D
:10162800B1EB024F18D103F07063E26AB3EB026FBB
:1016380014D1002006E001207047012002E00120BB
:1016480000E0002002B070BD0120FBE70120F9E7AF
:101658000120F7E70120F5E70120F3E70120F1E792
:10166800003802400000474208B5264B9B6803F04B
:101678000C03042B41D0082B41D1224B5A6802F0AD
:101688003F025B6813F4800F12D01E4B5968C1F3F8
:1016980088111D480023A1FB0001FEF779FD194BB5
:1016A8005B68C3F3014301335B00B0FBF3F008BD93
:1016B800144B5868C0F388104FEA401CBCEB000C70
:1016C8006EEB0E0E4FEA8E1343EA9C634FEA8C11C1
:1016D800B1EB0C0163EB0E03DB0043EA5173C90065
:1016E80011EB000C43F10003990200234FEA8C2010
:1016F80041EA9C51FEF74CFDD1E70348D7E7034880
:10170800D5E700BF0038024040787D010024F4008E
:10171800002800F09B8070B50D4604464F4B1B68AF
:1017280003F007038B4208D2CBB24C4A13701368FC
:1017380003F007038B4240F08B80236813F0020FFD
:1017480017D013F0040F04D0454A936843F4E053CC
:101758009360236813F0080F04D0414A936843F458
:10176800604393603E4A936823F0F003A1680B43FB
:101778009360236813F0010F32D06368012B21D0E6
:101788009A1E012A25D9364A126812F0020F61D032
:1017980033498A6822F0030213438B6000F022FA6F
:1017A80006462F4B9B6803F00C036268B3EB820F6D
:1017B80016D000F017FA801B41F288339842F0D90E
:1017C800032042E0264A126812F4003FE0D10120CB
:1017D8003BE0234A126812F0007FD9D1012034E09F
:1017E8001E4B1B6803F00703AB4207D9EAB21B4B39
:1017F8001A701B6803F00703AB422DD1236813F05E
:10180800040F06D0164A936823F4E053E1680B43AB
:101818009360236813F0080F07D0114A936823F4E4
:101828006043216943EAC1039360FFF71DFF0C4B36
:101838009B68C3F303130B4AD35CD8400A4B186068
:101848000A4B186800F082F9002070BD012070472B
:101858000120FAE70120F8E70120F6E7003C024002
:1018680000380240F01F0008080000200400002093
:1018780000230F2B00F2D78070B582B065E0856831
:101888004FEA430E032404FA0EF425EA0405CC6853
:1018980004FA0EF42C438460446824EA02044A687B
:1018A800C2F300129A40224342605CE0DC0808342C
:1018B80050F8242003F00705AD004FF00F0E0EFA84
:1018C80005FE22EA0E0E0A69AA4042EA0E0240F814
:1018D80024205CE0042200E0002202FA0EF22A43EF
:1018E8000234514D45F82420504A94686FEA0C029E
:1018F80024EA0C054E6816F4801F01D04CEA040552
:101908004A4CA560E46802EA04054E6816F4001F14
:1019180001D04CEA0405454CE560646802EA040518
:101928004E6816F4003F01D04CEA04053F4C656050
:10193800246822404D6815F4803F01D04CEA040227
:101948003A4C226001330F2B6BD801229A400C6865
:1019580004EA020C32EA0404F4D14C6804F00304EB
:10196800013C012C8BD94A6802F00302032A09D0F2
:10197800C4685D000322AA4024EA02048A68AA40D7
:101988002243C2604A6802F00302022A8ED0046829
:101998004FEA430E032202FA0EF224EA02044A68CE
:1019A80002F0030202FA0EF2224302604A6812F4BD
:1019B800403FC7D0002201921D4A546C44F4804431
:1019C8005464526C02F480420192019A9C08A51C4E
:1019D800154A52F8255003F0030E4FEA8E0E0F22D7
:1019E80002FA0EF225EA0205124A90423FF474AF59
:1019F80002F5806290420ED002F5806290420CD0CF
:101A080002F5806290420AD002F5806290423FF46B
:101A180061AF072261E701225FE702225DE7032247
:101A28005BE702B070BD704700380140003C0140E0
:101A380000380240000002400369194201D0012029
:101A48007047002070470AB18161704709048161BD
:101A580070470000002807DB00F01F02400901233F
:101A68009340024A42F82030704700BF00E100E08E
:101A7800002808DB0901C9B200F1604000F56140A7
:101A880080F80013704700F00F000901C9B2014B3C
:101A98001954704714ED00E000B500F00700C0F1DC
:101AA800070CBCF1040F28BF4FF0040C031D062BD4
:101AB8000FD9C31E4FF0FF3E0EFA0CF021EA0001C9
:101AC80099400EFA03FE22EA0E0241EA02005DF88E
:101AD80004FB0023EEE70000074AD36823F4E06321
:101AE8001B041B0C000200F4E060034343F0BF63D7
:101AF80043F40033D360704700ED00E010B50446AE
:101B0800054BD868C0F30220FFF7C6FF0146204600
:101B1800FFF7AEFF10BD00BF00ED00E008B5FFF70E
:101B280099FF08BD0138B0F1807F0BD24FF0E02358
:101B38005861054AF02182F8231000209861072295
:101B48001A6170470120704700ED00E010B50446A7
:101B58000E4B1A784FF47A73B3FBF2F30C4A106801
:101B6800B0FBF3F0FFF7DEFF68B90F2C01D90120B5
:101B78000AE0002221464FF0FF30FFF7BFFF054B78
:101B88001C60002000E0012010BD00BF0100002003
:101B9800080000200400002008B50B4B1A6842F426
:101BA80000721A601A6842F480621A601A6842F475
:101BB80080721A600320FFF78FFF0F20FFF7C6FF20
:101BC800FEF778FD002008BD003C0240034A11687A
:101BD800034B1B780B441360704700BFB80000200C
:101BE80001000020014B1868704700BFB8000020B2
:101BF80038B50446FFF7F6FF0546B4F1FF3F02D0BB
:101C0800044B1B781C44FFF7EDFF401BA042FAD39E
:101C180038BD00BF01000020034AD2F8883043F4E1
:101C28007003C2F88830704700ED00E0DFF834D068
:101C3800FFF7F2FF0C480D490D4A002302E0D45883
:101C4800C4500433C4188C42F9D30A4A0A4C0023FE
:101C580001E013600432A242FBD300F019F8FEF74A
:101C680083FC704700000220000000200C000020C8
:101C7800102000080C000020BC000020FEE70244F1
:101C88000346934200D1704703F8011BF9E70000AF
:101C980070B50D4B0D4D5B1B9C100026A64209D15B
:101CA80000F096F90A4D0B4B5B1B9C100026A642D0
:101CB80005D170BD55F8043B98470136EEE755F855
:101CC800043B98470136F2E708200008082000087E
:101CD800082000080C2000082DE9F047089D0F4651
:101CE80004468C46002B48D18A42164661D9B2FA7E
:101CF80082F34BB1C3F1200201FA03FC20FA02F28D
:101D08009E4042EA0C0C9C404FEA164EB7B2BCFB10
:101D1800FEF1220C0EFB11CC42EA0C4201FB07F04B
:101D2800904209D9B21801F1FF3C80F0EE80904250
:101D380040F2EB8002393244121AA4B2B2FBFEF030
:101D48000EFB102244EA024400FB07F7A74209D918
:101D5800341900F1FF3280F0DA80A74240F2D780D0
:101D68003444023840EA0140E41B00211DB1DC4044
:101D78000023C5E90043BDE8F0878B4206D90DB1C1
:101D8800C5E9000100210846BDE8F087B3FA83F1F0
:101D9800002948D1BB4202D3824200F20781841A4B
:101DA80067EB030201209446002DE4D0C5E9004CFE
:101DB800E1E7002A00F09280B2FA82F3002B40F0AB
:101DC800A8808A1A4FEA164E1FFA86FC0121200CB9
:101DD800B2FBFEF70EFB172240EA02420CFB07F0AB
:101DE800904207D9B21807F1FF3802D2904200F2A8
:101DF800E2804746121AA4B2B2FBFEF00EFB102294
:101E080044EA02440CFB00FCA44507D9341900F14C
:101E1800FF3202D2A44500F2CB801046A4EB0C049A
:101E280040EA0740A2E7C1F120068B4022FA06FCEF
:101E38004CEA030C07FA01F420FA06F3F7404FEADC
:101E48001C49234300FA01F81FFA8CFEB7FBF9F08E
:101E58001C0C09FB107744EA074400FB0EF7A74265
:101E680002FA01F20AD91CEB040400F1FF3A80F0EF
:101E78009B80A74240F2988002386444E41B9FB2DA
:101E8800B4FBF9F309FB134447EA044403FB0EFED1
:101E9800A64509D91CEB040403F1FF3780F08280C2
:101EA800A6457FD9023B644443EA0040A4EB0E04F4
:101EB800A0FB02E7BC427346B94663D360D05DB16C
:101EC800B8EB030264EB090404FA06F622FA01F3FC
:101ED8001E43CC40C5E9006400214CE7620848086D
:101EE80042EAC1710B0C43EA00438AB242EA034258
:101EF800B3FBF6F1E407B4463746B6461F23B0FBFA
:101F0800F6F0D21B41EA004161E7614614E710464A
:101F180028E7C3F1200120FA01F29E4027FA01F1D7
:101F28009F403A434FEA164E1FFA86FCB1FBFEF774
:101F38000EFB1710110C41EA004107FB0CF888450D
:101F480004FA03F43AD9711807F1FF3001D2884531
:101F58001FD8A1EB0801B1FBFEF808FB0CF70EFB3C
:101F6800181192B242EA0142BA422FD2B21808F1CD
:101F7800FF31C6D2BA42C4D2A8F102013244C0E746
:101F8800F0459CD2BEEB020367EB0C070138B9465B
:101F980095E7A6EB08084144B81EB1FBFEF808FB1C
:101FA8000CF7DCE73B467FE7504667E70846FBE669
:101FB8003444023832E7023F32441BE7A1EB080100
:101FC8003846B1FBFEF808FB0CF7C8E7414698E72E
:101FD800F8B500BFF8BC08BC9E467047F8B500BF0E
:081FE800F8BC08BC9E467047DE
:101FF00000000000000000000102030406070809B9
:08200000E0FCFF7F010000007D
:042008003502000895
:04200C000D020008B9
:0C20100001010000100000000024F4009A
:0400000508001C359E
:00000001FF
